{
  "_format": "hh-sol-artifact-1",
  "contractName": "Vote",
  "sourceName": "contracts/voting/vote.sol",
  "abi": [
    {
      "anonymous": false,
      "inputs": [
        {
          "indexed": true,
          "internalType": "uint256",
          "name": "groupId",
          "type": "uint256"
        },
        {
          "indexed": false,
          "internalType": "bytes32",
          "name": "voteMsg",
          "type": "bytes32"
        }
      ],
      "name": "VoteAdded",
      "type": "event"
    },
    {
      "inputs": [],
      "name": "GROUP_ID",
      "outputs": [
        {
          "internalType": "uint256",
          "name": "",
          "type": "uint256"
        }
      ],
      "stateMutability": "view",
      "type": "function"
    },
    {
      "inputs": [
        {
          "internalType": "uint256",
          "name": "groupId",
          "type": "uint256"
        },
        {
          "internalType": "uint256",
          "name": "identityCommitment",
          "type": "uint256"
        }
      ],
      "name": "addMember",
      "outputs": [],
      "stateMutability": "nonpayable",
      "type": "function"
    },
    {
      "inputs": [
        {
          "internalType": "uint256",
          "name": "merkleTreeDepth",
          "type": "uint256"
        },
        {
          "internalType": "address",
          "name": "admin",
          "type": "address"
        }
      ],
      "name": "createGroup",
      "outputs": [
        {
          "internalType": "uint256",
          "name": "",
          "type": "uint256"
        }
      ],
      "stateMutability": "nonpayable",
      "type": "function"
    },
    {
      "inputs": [],
      "name": "group",
      "outputs": [
        {
          "internalType": "contract IGroup",
          "name": "",
          "type": "address"
        }
      ],
      "stateMutability": "view",
      "type": "function"
    },
    {
      "inputs": [
        {
          "internalType": "contract IGroup",
          "name": "_group",
          "type": "address"
        },
        {
          "internalType": "contract ISignal",
          "name": "_signal",
          "type": "address"
        }
      ],
      "name": "initialize",
      "outputs": [],
      "stateMutability": "nonpayable",
      "type": "function"
    },
    {
      "inputs": [],
      "name": "signal",
      "outputs": [
        {
          "internalType": "contract ISignal",
          "name": "",
          "type": "address"
        }
      ],
      "stateMutability": "view",
      "type": "function"
    },
    {
      "inputs": [
        {
          "internalType": "uint256",
          "name": "rc",
          "type": "uint256"
        },
        {
          "internalType": "uint256",
          "name": "groupId",
          "type": "uint256"
        },
        {
          "internalType": "uint256[8]",
          "name": "group_proof",
          "type": "uint256[8]"
        },
        {
          "internalType": "bytes32",
          "name": "voteMsg",
          "type": "bytes32"
        },
        {
          "internalType": "uint256",
          "name": "nullifierHash",
          "type": "uint256"
        },
        {
          "internalType": "uint256",
          "name": "externalNullifier",
          "type": "uint256"
        },
        {
          "internalType": "uint256[8]",
          "name": "signal_proof",
          "type": "uint256[8]"
        }
      ],
      "name": "vote",
      "outputs": [],
      "stateMutability": "nonpayable",
      "type": "function"
    },
    {
      "inputs": [
        {
          "internalType": "uint256",
          "name": "",
          "type": "uint256"
        },
        {
          "internalType": "bytes32",
          "name": "",
          "type": "bytes32"
        }
      ],
      "name": "voteStat",
      "outputs": [
        {
          "internalType": "uint256",
          "name": "",
          "type": "uint256"
        }
      ],
      "stateMutability": "view",
      "type": "function"
    }
  ],
  "bytecode": "0x608060405234801561001057600080fd5b50610e92806100206000396000f3fe608060405234801561001057600080fd5b50600436106100885760003560e01c8063640d090b1161005b578063640d090b146101015780637cdac8691461011f578063bdf4021b1461014f578063c96e71fb1461016b57610088565b80631783efc31461008d57806329e7ef2d146100a9578063485cc955146100c75780634dd9c0b5146100e3575b600080fd5b6100a760048036038101906100a2919061084f565b61019b565b005b6100b161022c565b6040516100be9190610a0e565b60405180910390f35b6100e160048036038101906100dc919061079b565b610250565b005b6100eb6102e5565b6040516100f89190610aa4565b60405180910390f35b6101096102eb565b6040516101169190610a29565b60405180910390f35b61013960048036038101906101349190610813565b610311565b6040516101469190610aa4565b60405180910390f35b6101696004803603810190610164919061088b565b610336565b005b610185600480360381019061018091906107d7565b610595565b6040516101929190610aa4565b60405180910390f35b60008054906101000a900473ffffffffffffffffffffffffffffffffffffffff1673ffffffffffffffffffffffffffffffffffffffff16631783efc383836040518363ffffffff1660e01b81526004016101f6929190610b13565b600060405180830381600087803b15801561021057600080fd5b505af1158015610224573d6000803e3d6000fd5b505050505050565b60008054906101000a900473ffffffffffffffffffffffffffffffffffffffff1681565b610258610646565b816000806101000a81548173ffffffffffffffffffffffffffffffffffffffff021916908373ffffffffffffffffffffffffffffffffffffffff16021790555080600160006101000a81548173ffffffffffffffffffffffffffffffffffffffff021916908373ffffffffffffffffffffffffffffffffffffffff16021790555060006003819055505050565b60035481565b600160009054906101000a900473ffffffffffffffffffffffffffffffffffffffff1681565b6002602052816000526040600020602052806000526040600020600091509150505481565b60008054906101000a900473ffffffffffffffffffffffffffffffffffffffff1673ffffffffffffffffffffffffffffffffffffffff1663f452ffa28888886040518463ffffffff1660e01b815260040161039393929190610b73565b602060405180830381600087803b1580156103ad57600080fd5b505af11580156103c1573d6000803e3d6000fd5b505050506040513d601f19601f820116820180604052508101906103e59190610772565b610424576040517f08c379a000000000000000000000000000000000000000000000000000000000815260040161041b90610a44565b60405180910390fd5b600160009054906101000a900473ffffffffffffffffffffffffffffffffffffffff1673ffffffffffffffffffffffffffffffffffffffff166346cf37b688868686866040518663ffffffff1660e01b8152600401610487959493929190610abf565b602060405180830381600087803b1580156104a157600080fd5b505af11580156104b5573d6000803e3d6000fd5b505050506040513d601f19601f820116820180604052508101906104d99190610772565b610518576040517f08c379a000000000000000000000000000000000000000000000000000000000815260040161050f90610a84565b60405180910390fd5b857f9259c591af3680137739dc2b275c388eb1639a143b49022e7062fa162f14776d8560405161054891906109f3565b60405180910390a2600160026000888152602001908152602001600020600086815260200190815260200160002060008282546105859190610bbc565b9250508190555050505050505050565b60008060009054906101000a900473ffffffffffffffffffffffffffffffffffffffff1673ffffffffffffffffffffffffffffffffffffffff16639c1121416003600081546105e390610cdf565b91905081905585856040518463ffffffff1660e01b815260040161060993929190610b3c565b600060405180830381600087803b15801561062357600080fd5b505af1158015610637573d6000803e3d6000fd5b50505050600354905092915050565b60007f8e94fed44239eb2314ab7a406345e6c5a8f0ccedf3b600de3d004e672c33abf454905060017f8e94fed44239eb2314ab7a406345e6c5a8f0ccedf3b600de3d004e672c33abf455600081146106d3576040517f08c379a00000000000000000000000000000000000000000000000000000000081526004016106ca90610a64565b60405180910390fd5b50565b6000813590506106e581610dd2565b92915050565b60008190508260206008028201111561070357600080fd5b92915050565b60008151905061071881610de9565b92915050565b60008135905061072d81610e00565b92915050565b60008135905061074281610e17565b92915050565b60008135905061075781610e2e565b92915050565b60008135905061076c81610e45565b92915050565b60006020828403121561078457600080fd5b600061079284828501610709565b91505092915050565b600080604083850312156107ae57600080fd5b60006107bc85828601610733565b92505060206107cd85828601610748565b9150509250929050565b600080604083850312156107ea57600080fd5b60006107f88582860161075d565b9250506020610809858286016106d6565b9150509250929050565b6000806040838503121561082657600080fd5b60006108348582860161075d565b92505060206108458582860161071e565b9150509250929050565b6000806040838503121561086257600080fd5b60006108708582860161075d565b92505060206108818582860161075d565b9150509250929050565b60008060008060008060006102a0888a0312156108a757600080fd5b60006108b58a828b0161075d565b97505060206108c68a828b0161075d565b96505060406108d78a828b016106eb565b9550506101406108e98a828b0161071e565b9450506101606108fb8a828b0161075d565b93505061018061090d8a828b0161075d565b9250506101a061091f8a828b016106eb565b91505092959891949750929550565b61093781610c12565b82525050565b61094a6101008383610cd0565b5050565b61095781610c30565b82525050565b61096681610c88565b82525050565b61097581610cac565b82525050565b6000610988600f83610bab565b915061099382610d57565b602082019050919050565b60006109ab600283610bab565b91506109b682610d80565b602082019050919050565b60006109ce600b83610bab565b91506109d982610da9565b602082019050919050565b6109ed81610c7e565b82525050565b6000602082019050610a08600083018461094e565b92915050565b6000602082019050610a23600083018461095d565b92915050565b6000602082019050610a3e600083018461096c565b92915050565b60006020820190508181036000830152610a5d8161097b565b9050919050565b60006020820190508181036000830152610a7d8161099e565b9050919050565b60006020820190508181036000830152610a9d816109c1565b9050919050565b6000602082019050610ab960008301846109e4565b92915050565b600061018082019050610ad560008301886109e4565b610ae2602083018761094e565b610aef60408301866109e4565b610afc60608301856109e4565b610b09608083018461093d565b9695505050505050565b6000604082019050610b2860008301856109e4565b610b3560208301846109e4565b9392505050565b6000606082019050610b5160008301866109e4565b610b5e60208301856109e4565b610b6b604083018461092e565b949350505050565b600061014082019050610b8960008301866109e4565b610b9660208301856109e4565b610ba3604083018461093d565b949350505050565b600082825260208201905092915050565b6000610bc782610c7e565b9150610bd283610c7e565b9250827fffffffffffffffffffffffffffffffffffffffffffffffffffffffffffffffff03821115610c0757610c06610d28565b5b828201905092915050565b6000610c1d82610c5e565b9050919050565b60008115159050919050565b6000819050919050565b6000610c4582610c12565b9050919050565b6000610c5782610c12565b9050919050565b600073ffffffffffffffffffffffffffffffffffffffff82169050919050565b6000819050919050565b6000610c9382610c9a565b9050919050565b6000610ca582610c5e565b9050919050565b6000610cb782610cbe565b9050919050565b6000610cc982610c5e565b9050919050565b82818337600083830152505050565b6000610cea82610c7e565b91507fffffffffffffffffffffffffffffffffffffffffffffffffffffffffffffffff821415610d1d57610d1c610d28565b5b600182019050919050565b7f4e487b7100000000000000000000000000000000000000000000000000000000600052601160045260246000fd5b7f67726f75702070726f6f66206572720000000000000000000000000000000000600082015250565b7f3142000000000000000000000000000000000000000000000000000000000000600082015250565b7f7369676e616c206661696c000000000000000000000000000000000000000000600082015250565b610ddb81610c12565b8114610de657600080fd5b50565b610df281610c24565b8114610dfd57600080fd5b50565b610e0981610c30565b8114610e1457600080fd5b50565b610e2081610c3a565b8114610e2b57600080fd5b50565b610e3781610c4c565b8114610e4257600080fd5b50565b610e4e81610c7e565b8114610e5957600080fd5b5056fea2646970667358221220009f3f427460839c29910bdc557d3d7800994a0449a7d8a6b43a485505ca064564736f6c63430008040033",
  "linkReferences": {},
  "deployedLinkReferences": {}
}